{
  "abi": [
    {
      "inputs": [
        {
          "internalType": "uint256",
          "name": "entranceFee",
          "type": "uint256"
        },
        {
          "internalType": "uint256",
          "name": "interval",
          "type": "uint256"
        },
        {
          "internalType": "address",
          "name": "vrfCoordinatorV2",
          "type": "address"
        },
        {
          "internalType": "bytes32",
          "name": "gasLane",
          "type": "bytes32"
        },
        {
          "internalType": "uint64",
          "name": "subscriptionId",
          "type": "uint64"
        },
        {
          "internalType": "uint32",
          "name": "callbackGasLimit",
          "type": "uint32"
        }
      ],
      "stateMutability": "nonpayable",
      "type": "constructor"
    },
    {
      "inputs": [],
      "name": "Lottery4d__AlreadySubmitted",
      "type": "error"
    },
    {
      "inputs": [],
      "name": "Lottery4d__CalculatingWinner",
      "type": "error"
    },
    {
      "inputs": [],
      "name": "Lottery4d__InvalidNumber",
      "type": "error"
    },
    {
      "inputs": [],
      "name": "Lottery4d__NotEnoughEthSent",
      "type": "error"
    },
    {
      "inputs": [
        {
          "internalType": "uint256",
          "name": "submittedNumbers",
          "type": "uint256"
        },
        {
          "internalType": "enum Lottery4d.Lottery4dState",
          "name": "lottery4dState",
          "type": "uint8"
        }
      ],
      "name": "Lottery4d__UpkeepNotNeeded",
      "type": "error"
    },
    {
      "inputs": [
        {
          "internalType": "address",
          "name": "have",
          "type": "address"
        },
        {
          "internalType": "address",
          "name": "want",
          "type": "address"
        }
      ],
      "name": "OnlyCoordinatorCanFulfill",
      "type": "error"
    },
    {
      "anonymous": false,
      "inputs": [
        {
          "indexed": true,
          "internalType": "address",
          "name": "player",
          "type": "address"
        },
        {
          "indexed": true,
          "internalType": "uint256",
          "name": "number",
          "type": "uint256"
        }
      ],
      "name": "NumberSubmitted",
      "type": "event"
    },
    {
      "anonymous": false,
      "inputs": [
        {
          "indexed": true,
          "internalType": "address",
          "name": "winner",
          "type": "address"
        },
        {
          "indexed": true,
          "internalType": "uint256",
          "name": "prizeAmount",
          "type": "uint256"
        }
      ],
      "name": "PrizeClaimed",
      "type": "event"
    },
    {
      "anonymous": false,
      "inputs": [
        {
          "indexed": true,
          "internalType": "uint256",
          "name": "firstPrize",
          "type": "uint256"
        },
        {
          "indexed": true,
          "internalType": "uint256",
          "name": "secondPrize",
          "type": "uint256"
        },
        {
          "indexed": true,
          "internalType": "uint256",
          "name": "thirdPrize",
          "type": "uint256"
        }
      ],
      "name": "WinningNumbers",
      "type": "event"
    },
    {
      "inputs": [
        {
          "internalType": "bytes",
          "name": "",
          "type": "bytes"
        }
      ],
      "name": "checkUpkeep",
      "outputs": [
        {
          "internalType": "bool",
          "name": "upkeepNeeded",
          "type": "bool"
        },
        {
          "internalType": "bytes",
          "name": "",
          "type": "bytes"
        }
      ],
      "stateMutability": "view",
      "type": "function"
    },
    {
      "inputs": [],
      "name": "getFirstPrizeWinners",
      "outputs": [
        {
          "internalType": "address[]",
          "name": "",
          "type": "address[]"
        }
      ],
      "stateMutability": "view",
      "type": "function"
    },
    {
      "inputs": [],
      "name": "getLatestTimestamp",
      "outputs": [
        {
          "internalType": "uint256",
          "name": "",
          "type": "uint256"
        }
      ],
      "stateMutability": "view",
      "type": "function"
    },
    {
      "inputs": [],
      "name": "getSecondPrizeWinners",
      "outputs": [
        {
          "internalType": "address[]",
          "name": "",
          "type": "address[]"
        }
      ],
      "stateMutability": "view",
      "type": "function"
    },
    {
      "inputs": [],
      "name": "getState",
      "outputs": [
        {
          "internalType": "enum Lottery4d.Lottery4dState",
          "name": "",
          "type": "uint8"
        }
      ],
      "stateMutability": "view",
      "type": "function"
    },
    {
      "inputs": [],
      "name": "getSubmittedNumbers",
      "outputs": [
        {
          "internalType": "uint256[]",
          "name": "",
          "type": "uint256[]"
        }
      ],
      "stateMutability": "view",
      "type": "function"
    },
    {
      "inputs": [
        {
          "internalType": "uint256",
          "name": "number",
          "type": "uint256"
        }
      ],
      "name": "getSubmittedNumbersToPlayers",
      "outputs": [
        {
          "internalType": "address[]",
          "name": "",
          "type": "address[]"
        }
      ],
      "stateMutability": "view",
      "type": "function"
    },
    {
      "inputs": [],
      "name": "getThirdPrizeWinners",
      "outputs": [
        {
          "internalType": "address[]",
          "name": "",
          "type": "address[]"
        }
      ],
      "stateMutability": "view",
      "type": "function"
    },
    {
      "inputs": [
        {
          "internalType": "bytes",
          "name": "",
          "type": "bytes"
        }
      ],
      "name": "performUpkeep",
      "outputs": [
        {
          "internalType": "uint256",
          "name": "",
          "type": "uint256"
        }
      ],
      "stateMutability": "nonpayable",
      "type": "function"
    },
    {
      "inputs": [
        {
          "internalType": "uint256",
          "name": "requestId",
          "type": "uint256"
        },
        {
          "internalType": "uint256[]",
          "name": "randomWords",
          "type": "uint256[]"
        }
      ],
      "name": "rawFulfillRandomWords",
      "outputs": [],
      "stateMutability": "nonpayable",
      "type": "function"
    },
    {
      "inputs": [
        {
          "internalType": "uint256",
          "name": "number",
          "type": "uint256"
        }
      ],
      "name": "submitNumber",
      "outputs": [],
      "stateMutability": "payable",
      "type": "function"
    }
  ],
  "bytecode": {
    "object": "0x61016060405234801561001157600080fd5b506040516114ce3803806114ce83398101604081905261003091610080565b6001600160a01b0393909316608081905260a09590955260c09390935260e093909352610100929092526001600160401b03166101205263ffffffff16610140526005805460ff1916905561010b565b60008060008060008060c0878903121561009957600080fd5b86516020880151604089015191975095506001600160a01b03811681146100bf57600080fd5b6060880151608089015191955093506001600160401b03811681146100e357600080fd5b60a088015190925063ffffffff811681146100fd57600080fd5b809150509295509295509295565b60805160a05160c05160e05161010051610120516101405161136261016c60003960006103cd0152600061039801526000610369015260006103fc015260006106bc0152600061047b01526000818161026101526102a301526113626000f3fe60806040526004361061009c5760003560e01c806359f77f5f1161006457806359f77f5f1461014f5780636e04ff0d14610171578063b0e193f31461019f578063b7ad4150146101b4578063edb3f560146101d4578063f43b52cb146101e957600080fd5b80630d1d7e69146100a15780631865c57d146100cc5780631fe543e3146100ec5780634585e33b1461010e5780634fcb4de21461013c575b600080fd5b3480156100ad57600080fd5b506100b66101fe565b6040516100c39190610f5b565b60405180910390f35b3480156100d857600080fd5b5060055460ff166040516100c39190610fd7565b3480156100f857600080fd5b5061010c610107366004611032565b610256565b005b34801561011a57600080fd5b5061012e6101293660046110e4565b6102e3565b6040519081526020016100c3565b61010c61014a366004611179565b610479565b34801561015b57600080fd5b50610164610653565b6040516100c39190611192565b34801561017d57600080fd5b5061019161018c3660046110e4565b6106b4565b6040516100c39291906111d3565b3480156101ab57600080fd5b5061016461073e565b3480156101c057600080fd5b506101646101cf366004611179565b61079e565b3480156101e057600080fd5b5061016461080a565b3480156101f557600080fd5b5060045461012e565b6060600380548060200260200160405190810160405280929190818152602001828054801561024c57602002820191906000526020600020905b815481526020019060010190808311610238575b5050505050905090565b336001600160a01b037f000000000000000000000000000000000000000000000000000000000000000016146102d55760405163073e64fd60e21b81523360048201526001600160a01b037f00000000000000000000000000000000000000000000000000000000000000001660248201526044015b60405180910390fd5b6102df828261086a565b5050565b6000806102fe604051806020016040528060008152506106b4565b5090508061032a57600354600554604051637d296e2160e01b81526102cc929160ff169060040161122b565b6005805460ff19166001179055610342600080610f21565b61034e60016000610f21565b61035a60026000610f21565b6040516305d3b1d360e41b81527f0000000000000000000000000000000000000000000000000000000000000000600482015267ffffffffffffffff7f000000000000000000000000000000000000000000000000000000000000000016602482015260036044820181905263ffffffff7f000000000000000000000000000000000000000000000000000000000000000016606483015260848201526000907f00000000000000000000000000000000000000000000000000000000000000006001600160a01b031690635d3b1d309060a4016020604051808303816000875af115801561044d573d6000803e3d6000fd5b505050506040513d601f19601f820116820180604052508101906104719190611246565b949350505050565b7f00000000000000000000000000000000000000000000000000000000000000003410156104ba5760405163108fac1b60e11b815260040160405180910390fd5b61270f8111156104dd576040516337a73fe760e21b815260040160405180910390fd5b600160055460ff1660018111156104f6576104f6610f9f565b03610514576040516324831c6b60e21b815260040160405180910390fd5b60035460000361052357426004555b600081815260066020526040902054156105be5760005b6000828152600660205260409020548110156105b85760008281526006602052604090208054339190839081106105735761057361125f565b6000918252602090912001546001600160a01b0316036105a6576040516328a80cd160e11b815260040160405180910390fd5b806105b08161128b565b91505061053a565b506105f4565b600380546001810182556000919091527fc2575a0e9e593c00f959f8c92f12db2869c3395a3b0502d05e2516446f71f85b018190555b6000818152600660209081526040808320805460018101825590845291832090910180546001600160a01b03191633908117909155905183927f3f93e3ed66fa119a3acdc2b14af80b963fd434897bc32ca010f0521fbbcf8ea891a350565b6060600180548060200260200160405190810160405280929190818152602001828054801561024c57602002820191906000526020600020905b81546001600160a01b0316815260019091019060200180831161068d575050505050905090565b6000606060007f0000000000000000000000000000000000000000000000000000000000000000600454426106e991906112a4565b11905060008060055460ff16600181111561070657610706610f9f565b6003549114915015158280156107195750815b80156107225750805b6040805160208101909152600081529097909650945050505050565b6060600280548060200260200160405190810160405280929190818152602001828054801561024c576020028201919060005260206000209081546001600160a01b0316815260019091019060200180831161068d575050505050905090565b6000818152600660209081526040918290208054835181840281018401909452808452606093928301828280156107fe57602002820191906000526020600020905b81546001600160a01b031681526001909101906020018083116107e0575b50505050509050919050565b6060600080548060200260200160405190810160405280929190818152602001828054801561024c576020028201919060005260206000209081546001600160a01b0316815260019091019060200180831161068d575050505050905090565b6108738161087b565b6102df610a82565b60008080805b8451811015610a4c5760006127108683815181106108a1576108a161125f565b60200260200101516108b391906112cd565b9050816000036108c5578094506108e1565b816001036108d5578093506108e1565b816002036108e1578092505b60008181526006602090815260408083208054825181850281018501909352808352919290919083018282801561094157602002820191906000526020600020905b81546001600160a01b03168152600190910190602001808311610923575b5050505050905060005b8151811015610a3657836000036109b05760008282815181106109705761097061125f565b60209081029190910181015182546001810184556000938452919092200180546001600160a01b0319166001600160a01b03909216919091179055610a24565b836001036109cc5760018282815181106109705761097061125f565b83600203610a245760028282815181106109e8576109e861125f565b60209081029190910181015182546001810184556000938452919092200180546001600160a01b0319166001600160a01b039092169190911790555b80610a2e8161128b565b91505061094b565b5050508080610a449061128b565b915050610881565b508082847f6ef49ee9abaf0765056134a8378f29cb7d31a2e498ba1af96f499ad728815d2160405160405180910390a450505050565b60005460015460025482151580610a995750600082115b80610aa45750600081115b15610e8e574760006064610ab98360466112e1565b610ac391906112f8565b905060006064610ad48460146112e1565b610ade91906112f8565b905060006064610aef85600a6112e1565b610af991906112f8565b90506000808811610b0b576000610b15565b610b1588856112f8565b90506000808811610b27576000610b31565b610b3188856112f8565b90506000808811610b43576000610b4d565b610b4d88856112f8565b905060005b8a811015610c5e576000808281548110610b6e57610b6e61125f565b60009182526020822001546040516001600160a01b039091169250829087908381818185875af1925050503d8060008114610bc5576040519150601f19603f3d011682016040523d82523d6000602084013e610bca565b606091505b5050905080610c255760405162461bcd60e51b815260206004820152602160248201527f4661696c656420746f2073656e64206669727374207072697a6520616d6f756e6044820152601d60fa1b60648201526084016102cc565b60405186906001600160a01b0384169060008051602061130d83398151915290600090a350508080610c569061128b565b915050610b52565b5060005b89811015610d7057600060018281548110610c7f57610c7f61125f565b60009182526020822001546040516001600160a01b039091169250829086908381818185875af1925050503d8060008114610cd6576040519150601f19603f3d011682016040523d82523d6000602084013e610cdb565b606091505b5050905080610d375760405162461bcd60e51b815260206004820152602260248201527f4661696c656420746f2073656e64207365636f6e64207072697a6520616d6f756044820152611b9d60f21b60648201526084016102cc565b60405185906001600160a01b0384169060008051602061130d83398151915290600090a350508080610d689061128b565b915050610c62565b5060005b88811015610e8157600060028281548110610d9157610d9161125f565b60009182526020822001546040516001600160a01b039091169250829085908381818185875af1925050503d8060008114610de8576040519150601f19603f3d011682016040523d82523d6000602084013e610ded565b606091505b5050905080610e485760405162461bcd60e51b815260206004820152602160248201527f4661696c656420746f2073656e64207468697264207072697a6520616d6f756e6044820152601d60fa1b60648201526084016102cc565b60405184906001600160a01b0384169060008051602061130d83398151915290600090a350508080610e799061128b565b915050610d74565b5050505050505050610eaa565b604051600090819060008051602061130d833981519152908290a35b60005b600354811015610f05576006600060038381548110610ece57610ece61125f565b906000526020600020015481526020019081526020016000206000610ef39190610f21565b80610efd8161128b565b915050610ead565b50610f1260036000610f21565b50506005805460ff1916905550565b5080546000825590600052602060002090810190610f3f9190610f42565b50565b5b80821115610f575760008155600101610f43565b5090565b6020808252825182820181905260009190848201906040850190845b81811015610f9357835183529284019291840191600101610f77565b50909695505050505050565b634e487b7160e01b600052602160045260246000fd5b60028110610fd357634e487b7160e01b600052602160045260246000fd5b9052565b60208101610fe58284610fb5565b92915050565b634e487b7160e01b600052604160045260246000fd5b604051601f8201601f1916810167ffffffffffffffff8111828210171561102a5761102a610feb565b604052919050565b6000806040838503121561104557600080fd5b8235915060208084013567ffffffffffffffff8082111561106557600080fd5b818601915086601f83011261107957600080fd5b81358181111561108b5761108b610feb565b8060051b915061109c848301611001565b81815291830184019184810190898411156110b657600080fd5b938501935b838510156110d4578435825293850193908501906110bb565b8096505050505050509250929050565b600060208083850312156110f757600080fd5b823567ffffffffffffffff8082111561110f57600080fd5b818501915085601f83011261112357600080fd5b81358181111561113557611135610feb565b611147601f8201601f19168501611001565b9150808252868482850101111561115d57600080fd5b8084840185840137600090820190930192909252509392505050565b60006020828403121561118b57600080fd5b5035919050565b6020808252825182820181905260009190848201906040850190845b81811015610f935783516001600160a01b0316835292840192918401916001016111ae565b821515815260006020604081840152835180604085015260005b81811015611209578581018301518582016060015282016111ed565b506000606082860101526060601f19601f830116850101925050509392505050565b8281526040810161123f6020830184610fb5565b9392505050565b60006020828403121561125857600080fd5b5051919050565b634e487b7160e01b600052603260045260246000fd5b634e487b7160e01b600052601160045260246000fd5b60006001820161129d5761129d611275565b5060010190565b81810381811115610fe557610fe5611275565b634e487b7160e01b600052601260045260246000fd5b6000826112dc576112dc6112b7565b500690565b8082028115828204841417610fe557610fe5611275565b600082611307576113076112b7565b50049056fe95681e512bc0fe659e195e06c283eada494316f3d801213e48e7101af92bf770a264697066735822122099a8e2d329cd4caca37290abde9129ec856a8b90839b8bad7d5d53eb157ae21664736f6c63430008150033",
    "linkReferences": {}
  },
  "methodIdentifiers": {
    "checkUpkeep(bytes)": "6e04ff0d",
    "getFirstPrizeWinners()": "edb3f560",
    "getLatestTimestamp()": "f43b52cb",
    "getSecondPrizeWinners()": "59f77f5f",
    "getState()": "1865c57d",
    "getSubmittedNumbers()": "0d1d7e69",
    "getSubmittedNumbersToPlayers(uint256)": "b7ad4150",
    "getThirdPrizeWinners()": "b0e193f3",
    "performUpkeep(bytes)": "4585e33b",
    "rawFulfillRandomWords(uint256,uint256[])": "1fe543e3",
    "submitNumber(uint256)": "4fcb4de2"
  },
  "id": 30
}